:100000000C9462000C948A000C948A000C948A0070
:100010000C948A000C948A000C948A000C940003BF
:100020000C948A000C948A000C948A000C948A0028
:100030000C948A000C948A000C948A000C948A0018
:100040000C945E020C948A000C94CE020C94A802CC
:100050000C948A000C948A000C948A000C948A00F8
:100060000C948A000C948A00000000080002010031
:100070000003040700000000000000000000000072
:10008000240027002A000000000023002600290089
:1000900000000000250028002B00040404040404D0
:1000A0000404020202020202030303030303010227
:1000B00004081020408001020408102001020408F6
:1000C0001020250311241FBECFEFD8E0DEBFCDBF27
:1000D00011E0A0E0B1E0EAE7FBE002C005900D927C
:1000E000A631B107D9F721E0A6E1B1E001C01D9228
:1000F000A43DB207E1F710E0C2E6D0E004C02197CA
:10010000FE010E94B505C136D107C9F70E949203CE
:100110000C94BB050C94000090E0FC01E255FF4FED
:10012000249186569F4FFC018491882399F090E09A
:10013000880F991FFC01E458FF4FA591B491FC0171
:10014000E057FF4F859194918FB7F894EC91E22B93
:10015000EC938FBF089590E0FC01E859FF4F249184
:10016000FC01E255FF4F3491FC01E656FF4FE4914C
:10017000EE23C9F0222339F0233001F1A8F4213015
:1001800019F1223029F1F0E0EE0FFF1FE057FF4F89
:10019000A591B4918FB7F894EC91611126C0309578
:1001A0003E233C938FBF08952730A9F02830C9F033
:1001B000243049F7809180008F7D03C080918000BA
:1001C0008F7780938000DFCF84B58F7784BDDBCFBE
:1001D00084B58F7DFBCF8091B0008F778093B00086
:1001E000D2CF8091B0008F7DF9CF3E2BDACF3FB7D1
:1001F000F8948091210190912201A0912301B09166
:10020000240126B5A89B05C02F3F19F00196A11D1A
:10021000B11D3FBFBA2FA92F982F8827BC01CD0150
:10022000620F711D811D911D42E0660F771F881FAF
:10023000991F4A95D1F708958F929F92AF92BF92DE
:10024000CF92DF92EF92FF920E94F7004B015C0188
:1002500082E3C82ED12CE12CF12C0E94F700681902
:1002600079098A099B09683E734081059105A8F3C5
:1002700021E0C21AD108E108F10888EE880E83E077
:10028000981EA11CB11CC114D104E104F10429F78A
:10029000FF90EF90DF90CF90BF90AF909F908F90A6
:1002A0000895AF92BF92CF92DF92EF92FF920F9399
:1002B0001F93CF93DF936C017B018B01040F151FFC
:1002C000EB015E01AE18BF08C017D10759F0699164
:1002D000D601ED91FC910190F081E02DC6010995C8
:1002E000892B79F7C501DF91CF911F910F91FF9075
:1002F000EF90DF90CF90BF90AF900895FC01538DA9
:10030000448D252F30E0842F90E0821B930B5417EF
:1003100010F0CF96089501970895FC01918D828D7C
:10032000981761F0A28DAE0FBF2FB11D5D968C9115
:10033000928D9F5F9F73928F90E008958FEF9FEF54
:100340000895FC01918D828D981731F0828DE80F10
:10035000F11D858D90E008958FEF9FEF0895FC01CA
:10036000918D228D892F90E0805C9F4F821B910997
:100370008F739927089585E291E00E94AF0121E0F3
:10038000892B09F420E0822F089580E090E0892BEA
:1003900029F00E94BB0181110C9400000895FC011A
:1003A000A48DA80FB92FB11DA35ABF4F2C91848DD6
:1003B00090E001968F739927848FA689B7892C9333
:1003C000A089B1898C91837080648C93938D848D86
:1003D000981306C00288F389E02D80818F7D808389
:1003E0000895EF92FF920F931F93CF93DF93EC0149
:1003F00081E0888F9B8D8C8D98131AC0E889F989CC
:10040000808185FF15C09FB7F894EE89FF896083CE
:10041000E889F98980818370806480839FBF81E04F
:1004200090E0DF91CF911F910F91FF90EF90089591
:10043000F62E0B8D10E00F5F1F4F0F731127E02E6C
:100440008C8D8E110CC00FB607FCFACFE889F989A4
:10045000808185FFF5CFCE010E94CF01F1CFEB8DDA
:10046000EC0FFD2FF11DE35AFF4FF0829FB7F89478
:100470000B8FEA89FB8980818062CFCFCF93DF9396
:10048000EC01888D8823B9F0AA89BB89E889F989AC
:100490008C9185FD03C0808186FD0DC00FB607FCE1
:1004A000F7CF8C9185FFF2CF808185FFEDCFCE0114
:1004B0000E94CF01E9CFDF91CF9108951F920F9253
:1004C0000FB60F9211242F933F938F939F93AF9367
:1004D000BF9380911D0190911E01A0911F01B091C9
:1004E000200130911C0123E0230F2D3758F5019690
:1004F000A11DB11D20931C0180931D0190931E012D
:10050000A0931F01B09320018091210190912201BD
:10051000A0912301B09124010196A11DB11D8093EA
:10052000210190932201A0932301B0932401BF9154
:10053000AF919F918F913F912F910F900FBE0F9090
:100540001F90189526E8230F0296A11DB11DD2CF4A
:100550001F920F920FB60F9211242F933F934F9338
:100560005F936F937F938F939F93AF93BF93EF931B
:10057000FF9385E291E00E94CF01FF91EF91BF913F
:10058000AF919F918F917F916F915F914F913F912B
:100590002F910F900FBE0F901F9018951F920F92E2
:1005A0000FB60F9211242F938F939F93EF93FF9386
:1005B000E0913501F09136018081E0913B01F091AD
:1005C0003C0182FD1BC0908180913E018F5F8F7343
:1005D00020913F01821741F0E0913E01F0E0EB5D98
:1005E000FE4F958F80933E01FF91EF919F918F91E8
:1005F0002F910F900FBE0F901F9018958081F4CF10
:100600001F920F920FB60F9211242F933F934F9387
:100610005F936F937F938F939F93AF93BF93EF936A
:10062000FF93F0E0E0E00995FF91EF91BF91AF916A
:100630009F918F917F916F915F914F913F912F91FA
:100640000F900FBE0F901F901895E5E2F1E0138216
:10065000128288EE93E0A0E0B0E084839583A683C5
:10066000B78384E091E09183808385EC90E0958767
:10067000848784EC90E09787868780EC90E0918B6C
:10068000808B81EC90E0938B828B82EC90E0958B59
:10069000848B86EC90E0978B868B118E128E138E56
:1006A000148EE4EBF0E0E491A2ECB1E01496EC934C
:1006B0001497E5EBF0E0E4911596EC93159780EA3A
:1006C00090E0FC012491E22FF0E0EE0FFF1FE057D5
:1006D000FF4F2591349117963C932E931697E1EA9C
:1006E000F0E0E491F0E0EE0FFF1FEA57FF4F259195
:1006F000349119963C932E931897FC018491E82F1E
:10070000F0E0EE0FFF1FE458FF4F859194911B9688
:100710009C938E931A9781EC9CE21D969C938E93EA
:100720001C970895CF93DF93CDB7DEB7A1970FB68F
:10073000F894DEBF0FBECDBF789484B5826084BDCF
:1007400084B5816084BD85B5826085BD85B58160D5
:1007500085BD80916E00816080936E001092810053
:10076000809181008260809381008091810081600E
:1007700080938100809180008160809380008091CF
:10078000B10084608093B1008091B000816080935B
:10079000B00080917A00846080937A0080917A0022
:1007A000826080937A0080917A00816080937A00E1
:1007B00080917A00806880937A001092C1008DE069
:1007C0000E948C00E0913501F091360182E0808337
:1007D000E0913101F09132011082E0913301F0910A
:1007E00034018FEC808310923D01E0913901F0914A
:1007F0003A0186E08083E0913701F09138018081F1
:1008000080618083E0913701F091380180818860B8
:100810008083E0913701F091380180818068808386
:10082000E0913701F091380180818F7D808389E3E9
:10083000882E912CA12CB12C9AE0492E512C612CA0
:10084000712C20E0222E20E0322EE091CC01F0919C
:10085000CD0180819091C601892B8083E091C801F0
:10086000F091C90190818091C60180958923808390
:100870008BE090E00197F1F7E091C801F091C90198
:1008800080819091C601892B808383E290E001975B
:10089000F1F7E091C801F091C90190818091C60102
:1008A000809589238083E091CC01F091CD019081E6
:1008B0008091C601809589238083E091CA01F091DF
:1008C000CB0180819091C701892309F473C090E026
:1008D00080E0BC0190E080E0A50194010E949305B6
:1008E00069017A0130931B0120931A010E941C01B7
:1008F00019A28E010F5D1F4FC701B601A30192011E
:100900000E94930569017A01605DF80162938F018D
:10091000C114D104E104F10479F7309761F001903A
:100920000020E9F73197AF01401B510BB80185E278
:1009300091E00E94510142E050E062E171E085E205
:1009400091E00E9451010E941C01E0901A01F09078
:100950001B01E114F10411F1F8ECEF16F104F4F4C9
:1009600061E08AE0E816F1042CF0EAE0EE16F1040A
:1009700021F060E08DE00E94AB00F5E0FE9D80017B
:10098000FF9D100D11248DE00E948C0001151105B2
:1009900009F082C060E08DE00E94AB0021143104B8
:1009A00009F453CF0E94BB01882309F44ECF0E9463
:1009B00000004BCF0E94F700AB01BC018091CE013B
:1009C0009091CF01B0E0A0E08855994EAF4FBF4F56
:1009D000840F951FA61FB71F8093D0019093D1015C
:1009E000A093D201B093D301E091CA01F091CB0161
:1009F00080819091C701892381F40E94F7000091C2
:100A0000D0011091D1012091D2013091D30106176C
:100A100017072807390740F75ACF0E94F70020919F
:100A2000CE013091CF01620F731F811D911D609324
:100A3000D0017093D1018093D2019093D301E091C2
:100A4000CA01F091CB0180819091C701892381F087
:100A50000E94F7000091D0011091D1012091D201A4
:100A60003091D301061717072807390740F72FCF12
:100A70000E94F7002091CE013091CF01A90145508D
:100A800051092091D0013091D101FA01E21BF30B01
:100A9000CF01860F971F1DCF0F3F110511F461E0A5
:100AA0007ACFE5E7F0E08491833019F140F48130AA
:100AB000B1F08230C9F0003811058CF76BCF873068
:100AC00011F1883041F18430B1F78091800080626B
:100AD0008093800010938B0000938A005FCF84B5D1
:100AE000806884BD07BD5ACF84B5806284BD08BDCF
:100AF00055CF80918000806880938000109389009A
:100B0000009388004BCF8091B00080688093B00044
:100B10000093B30043CF8091B00080628093B00017
:100B20000093B4003BCFA1E21A2EAA1BBB1BFD0110
:100B30000DC0AA1FBB1FEE1FFF1FA217B307E407BC
:100B4000F50720F0A21BB30BE40BF50B661F771F14
:100B5000881F991F1A9469F76095709580959095F4
:100B60009B01AC01BD01CF010895EE0FFF1F059061
:0A0B7000F491E02D0994F894FFCFF2
:100B7A0000000000F10151017E013E02AF018D012A
:060B8A00A1010D0A0000AC
:00000001FF
